:060000000A128A110C280F
:10000800FE00030EF1000A08F2000A128A11C8283D
:100018000A128A110F28F801F901FA0183010A125C
:100028008A1116280A128A1179200A128A11831253
:1000380003139F182028212822289F147903031DC1
:10004800262827282C28831603130C13630034282A
:100058007908031D302831283428831603130C1718
:100068007A03031D382839284D287808F5007508C3
:10007800F30000300A128A1107210A128A110D3082
:10008800F600FB30F500F50B4728F60B47284C28FF
:10009800FA0100300A128A111C210A128A118312ED
:1000A80003138800013089000230F7004530F6005C
:1000B800A930F500F50B5E28F60B5E28F70B5E28D5
:1000C80065288312031389010230F7004530F600D2
:1000D800A930F500F50B6E28F60B6E28F70B6E2885
:1000E80075281B280A128A110C2801308316031759
:1000F80088008901013083160313850083120313D6
:10010800850183160313870183120313870183165E
:1001180003138801831203138801831603138901CB
:10012800831203138901FF3083160313860081139A
:1001380007309500073096000F088F3960388F0018
:100148000F14831203131F083F3940389F0083168A
:1001580003131F129F12C330831203139F058316C4
:1001680003139F13831203131F140D30F300F30BB3
:10017800BB28831203130C13831603130C170B10DD
:100188008B150B178B170800831203130C1FCD2830
:10019800CE28DF281F0CF000700C0F39003A031D21
:1001A800D628D728DD281E08F0007008F80078083F
:1001B80087000C1300290B1CE228E32800290618E5
:1001C800E628E728EE287908031DEB28EC28EE2816
:1001D800F901F90A8618F128F228F8287903031D8D
:1001E800F628F728F828F9010619FB28FC28FF2823
:1001F800F901FA01FA0A0B1072088A00710E8300DD
:10020800FE0E7E0E0900F4007408831203178D0099
:1002180073088C00831603178C130C158B13553039
:100228008D00AA308D008C140C110B108B17080050
:10023800F3007308831203178D00831603178C13BA
:0A0248000C14831203170C080800C1
:08400000FF3FFF3FFF3FFF3FC0
:04400E00D420FF3F7C
:00000001FF
